{"contracts/Crowdfunding.sol":{"CrowdFunding":{"abi":[{"inputs":[{"internalType":"uint256","name":"","type":"uint256"}],"name":"campaigns","outputs":[{"internalType":"address","name":"owner","type":"address"},{"internalType":"string","name":"title","type":"string"},{"internalType":"string","name":"description","type":"string"},{"internalType":"uint256","name":"target","type":"uint256"},{"internalType":"uint256","name":"deadline","type":"uint256"},{"internalType":"uint256","name":"amountCollected","type":"uint256"},{"internalType":"string","name":"image","type":"string"}],"stateMutability":"view","type":"function"},{"inputs":[{"internalType":"address","name":"_owner","type":"address"},{"internalType":"string","name":"_title","type":"string"},{"internalType":"string","name":"_description","type":"string"},{"internalType":"uint256","name":"_target","type":"uint256"},{"internalType":"uint256","name":"_deadline","type":"uint256"},{"internalType":"string","name":"_image","type":"string"}],"name":"createCampaign","outputs":[{"internalType":"uint256","name":"","type":"uint256"}],"stateMutability":"nonpayable","type":"function"},{"inputs":[{"internalType":"uint256","name":"_id","type":"uint256"}],"name":"donateToCampaign","outputs":[],"stateMutability":"payable","type":"function"},{"inputs":[],"name":"getCampaigns","outputs":[{"components":[{"internalType":"address","name":"owner","type":"address"},{"internalType":"string","name":"title","type":"string"},{"internalType":"string","name":"description","type":"string"},{"internalType":"uint256","name":"target","type":"uint256"},{"internalType":"uint256","name":"deadline","type":"uint256"},{"internalType":"uint256","name":"amountCollected","type":"uint256"},{"internalType":"string","name":"image","type":"string"},{"internalType":"address[]","name":"donators","type":"address[]"},{"internalType":"uint256[]","name":"donations","type":"uint256[]"}],"internalType":"struct CrowdFunding.Campaign[]","name":"","type":"tuple[]"}],"stateMutability":"view","type":"function"},{"inputs":[{"internalType":"uint256","name":"_id","type":"uint256"}],"name":"getDonators","outputs":[{"internalType":"address[]","name":"","type":"address[]"},{"internalType":"uint256[]","name":"","type":"uint256[]"}],"stateMutability":"view","type":"function"},{"inputs":[],"name":"numberOfCampaigns","outputs":[{"internalType":"uint256","name":"","type":"uint256"}],"stateMutability":"view","type":"function"}],"evm":{"bytecode":{"linkReferences":{},"object":"6080604052600060015534801561001557600080fd5b50610f86806100256000396000f3fe6080604052600436106100555760003560e01c806307ca140d1461005a5780630fa91fa914610083578063141961bc146100b157806342a4fda8146100e45780639943e3a1146100f9578063a6b0363314610119575b600080fd5b34801561006657600080fd5b5061007060015481565b6040519081526020015b60405180910390f35b34801561008f57600080fd5b506100a361009e366004610972565b61013b565b60405161007a92919061098b565b3480156100bd57600080fd5b506100d16100cc366004610972565b61020a565b60405161007a9796959493929190610a55565b6100f76100f2366004610972565b6103e7565b005b34801561010557600080fd5b50610070610114366004610b62565b6104bf565b34801561012557600080fd5b5061012e6105c5565b60405161007a9190610c8f565b600081815260208181526040918290206007810180548451818502810185019095528085526060948594929360080192909184918301828280156101a857602002820191906000526020600020905b81546001600160a01b0316815260019091019060200180831161018a575b50505050509150808054806020026020016040519081016040528092919081815260200182805480156101fa57602002820191906000526020600020905b8154815260200190600101908083116101e6575b5050505050905091509150915091565b600060208190529081526040902080546001820180546001600160a01b03909216929161023690610d9c565b80601f016020809104026020016040519081016040528092919081815260200182805461026290610d9c565b80156102af5780601f10610284576101008083540402835291602001916102af565b820191906000526020600020905b81548152906001019060200180831161029257829003601f168201915b5050505050908060020180546102c490610d9c565b80601f01602080910402602001604051908101604052809291908181526020018280546102f090610d9c565b801561033d5780601f106103125761010080835404028352916020019161033d565b820191906000526020600020905b81548152906001019060200180831161032057829003601f168201915b50505050509080600301549080600401549080600501549080600601805461036490610d9c565b80601f016020809104026020016040519081016040528092919081815260200182805461039090610d9c565b80156103dd5780601f106103b2576101008083540402835291602001916103dd565b820191906000526020600020905b8154815290600101906020018083116103c057829003601f168201915b5050505050905087565b600081815260208181526040808320600781018054600181810183559186528486200180546001600160a01b0319163317905560088201805491820181558552928420349301839055805491519293909290916001600160a01b031690849061045790600160fd1b815260010190565b60006040518083038185875af1925050503d8060008114610494576040519150601f19603f3d011682016040523d82523d6000602084013e610499565b606091505b5050905080156104b9578282600501546104b39190610de6565b60058301555b50505050565b60015460009081526020819052604081206004810154421161053b5760405162461bcd60e51b815260206004820152602b60248201527f54686520646561646c696e652073686f756c642062652061206461746520696e60448201526a207468652066757475726560a81b606482015260840160405180910390fd5b80546001600160a01b0319166001600160a01b038916178155600181016105628882610e4e565b50600281016105718782610e4e565b50600381018590556004810184905560006005820155600681016105958482610e4e565b50600180549060006105a683610f0e565b9190505550600180546105b99190610f27565b98975050505050505050565b6060600060015467ffffffffffffffff8111156105e4576105e4610abf565b60405190808252806020026020018201604052801561066d57816020015b61065a60405180610120016040528060006001600160a01b0316815260200160608152602001606081526020016000815260200160008152602001600081526020016060815260200160608152602001606081525090565b8152602001906001900390816106025790505b50905060005b60015481101561096c57600081815260208181526040918290208251610120810190935280546001600160a01b03168352600181018054919392849290840191906106bd90610d9c565b80601f01602080910402602001604051908101604052809291908181526020018280546106e990610d9c565b80156107365780601f1061070b57610100808354040283529160200191610736565b820191906000526020600020905b81548152906001019060200180831161071957829003601f168201915b5050505050815260200160028201805461074f90610d9c565b80601f016020809104026020016040519081016040528092919081815260200182805461077b90610d9c565b80156107c85780601f1061079d576101008083540402835291602001916107c8565b820191906000526020600020905b8154815290600101906020018083116107ab57829003601f168201915b505050505081526020016003820154815260200160048201548152602001600582015481526020016006820180546107ff90610d9c565b80601f016020809104026020016040519081016040528092919081815260200182805461082b90610d9c565b80156108785780601f1061084d57610100808354040283529160200191610878565b820191906000526020600020905b81548152906001019060200180831161085b57829003601f168201915b50505050508152602001600782018054806020026020016040519081016040528092919081815260200182805480156108da57602002820191906000526020600020905b81546001600160a01b031681526001909101906020018083116108bc575b505050505081526020016008820180548060200260200160405190810160405280929190818152602001828054801561093257602002820191906000526020600020905b81548152602001906001019080831161091e575b50505050508152505083838151811061094d5761094d610f3a565b602002602001018190525050808061096490610f0e565b915050610673565b50919050565b60006020828403121561098457600080fd5b5035919050565b604080825283519082018190526000906020906060840190828701845b828110156109cd5781516001600160a01b0316845292840192908401906001016109a8565b5050508381038285015284518082528583019183019060005b81811015610a02578351835292840192918401916001016109e6565b5090979650505050505050565b6000815180845260005b81811015610a3557602081850181015186830182015201610a19565b506000602082860101526020601f19601f83011685010191505092915050565b6001600160a01b038816815260e060208201819052600090610a7990830189610a0f565b8281036040840152610a8b8189610a0f565b90508660608401528560808401528460a084015282810360c0840152610ab18185610a0f565b9a9950505050505050505050565b634e487b7160e01b600052604160045260246000fd5b600082601f830112610ae657600080fd5b813567ffffffffffffffff80821115610b0157610b01610abf565b604051601f8301601f19908116603f01168101908282118183101715610b2957610b29610abf565b81604052838152866020858801011115610b4257600080fd5b836020870160208301376000602085830101528094505050505092915050565b60008060008060008060c08789031215610b7b57600080fd5b86356001600160a01b0381168114610b9257600080fd5b9550602087013567ffffffffffffffff80821115610baf57600080fd5b610bbb8a838b01610ad5565b96506040890135915080821115610bd157600080fd5b610bdd8a838b01610ad5565b9550606089013594506080890135935060a0890135915080821115610c0157600080fd5b50610c0e89828a01610ad5565b9150509295509295509295565b600081518084526020808501945080840160005b83811015610c545781516001600160a01b031687529582019590820190600101610c2f565b509495945050505050565b600081518084526020808501945080840160005b83811015610c5457815187529582019590820190600101610c73565b60006020808301818452808551808352604092508286019150828160051b87010184880160005b83811015610d8e57888303603f19018552815180516001600160a01b0316845261012088820151818a870152610cee82870182610a0f565b9150508782015185820389870152610d068282610a0f565b606084810151908801526080808501519088015260a0808501519088015260c080850151888303828a01529193509150610d408382610a0f565b9250505060e08083015186830382880152610d5b8382610c1b565b925050506101008083015192508582038187015250610d7a8183610c5f565b968901969450505090860190600101610cb6565b509098975050505050505050565b600181811c90821680610db057607f821691505b60208210810361096c57634e487b7160e01b600052602260045260246000fd5b634e487b7160e01b600052601160045260246000fd5b80820180821115610df957610df9610dd0565b92915050565b601f821115610e4957600081815260208120601f850160051c81016020861015610e265750805b601f850160051c820191505b81811015610e4557828155600101610e32565b5050505b505050565b815167ffffffffffffffff811115610e6857610e68610abf565b610e7c81610e768454610d9c565b84610dff565b602080601f831160018114610eb15760008415610e995750858301515b600019600386901b1c1916600185901b178555610e45565b600085815260208120601f198616915b82811015610ee057888601518255948401946001909101908401610ec1565b5085821015610efe5787850151600019600388901b60f8161c191681555b5050505050600190811b01905550565b600060018201610f2057610f20610dd0565b5060010190565b81810381811115610df957610df9610dd0565b634e487b7160e01b600052603260045260246000fdfea2646970667358221220516138ba1c9111c3cd8b615ee565eefed93a815dad5db623ded9ef14f5659bab64736f6c63430008110033","opcodes":"PUSH1 0x80 PUSH1 0x40 MSTORE PUSH1 0x0 PUSH1 0x1 SSTORE CALLVALUE DUP1 ISZERO PUSH2 0x15 JUMPI PUSH1 0x0 DUP1 REVERT JUMPDEST POP PUSH2 0xF86 DUP1 PUSH2 0x25 PUSH1 0x0 CODECOPY PUSH1 0x0 RETURN INVALID PUSH1 0x80 PUSH1 0x40 MSTORE PUSH1 0x4 CALLDATASIZE LT PUSH2 0x55 JUMPI PUSH1 0x0 CALLDATALOAD PUSH1 0xE0 SHR DUP1 PUSH4 0x7CA140D EQ PUSH2 0x5A JUMPI DUP1 PUSH4 0xFA91FA9 EQ PUSH2 0x83 JUMPI DUP1 PUSH4 0x141961BC EQ PUSH2 0xB1 JUMPI DUP1 PUSH4 0x42A4FDA8 EQ PUSH2 0xE4 JUMPI DUP1 PUSH4 0x9943E3A1 EQ PUSH2 0xF9 JUMPI DUP1 PUSH4 0xA6B03633 EQ PUSH2 0x119 JUMPI JUMPDEST PUSH1 0x0 DUP1 REVERT JUMPDEST CALLVALUE DUP1 ISZERO PUSH2 0x66 JUMPI PUSH1 0x0 DUP1 REVERT JUMPDEST POP PUSH2 0x70 PUSH1 0x1 SLOAD DUP2 JUMP JUMPDEST PUSH1 0x40 MLOAD SWAP1 DUP2 MSTORE PUSH1 0x20 ADD JUMPDEST PUSH1 0x40 MLOAD DUP1 SWAP2 SUB SWAP1 RETURN JUMPDEST CALLVALUE DUP1 ISZERO PUSH2 0x8F JUMPI PUSH1 0x0 DUP1 REVERT JUMPDEST POP PUSH2 0xA3 PUSH2 0x9E CALLDATASIZE PUSH1 0x4 PUSH2 0x972 JUMP JUMPDEST PUSH2 0x13B JUMP JUMPDEST PUSH1 0x40 MLOAD PUSH2 0x7A SWAP3 SWAP2 SWAP1 PUSH2 0x98B JUMP JUMPDEST CALLVALUE DUP1 ISZERO PUSH2 0xBD JUMPI PUSH1 0x0 DUP1 REVERT JUMPDEST POP PUSH2 0xD1 PUSH2 0xCC CALLDATASIZE PUSH1 0x4 PUSH2 0x972 JUMP JUMPDEST PUSH2 0x20A JUMP JUMPDEST PUSH1 0x40 MLOAD PUSH2 0x7A SWAP8 SWAP7 SWAP6 SWAP5 SWAP4 SWAP3 SWAP2 SWAP1 PUSH2 0xA55 JUMP JUMPDEST PUSH2 0xF7 PUSH2 0xF2 CALLDATASIZE PUSH1 0x4 PUSH2 0x972 JUMP JUMPDEST PUSH2 0x3E7 JUMP JUMPDEST STOP JUMPDEST CALLVALUE DUP1 ISZERO PUSH2 0x105 JUMPI PUSH1 0x0 DUP1 REVERT JUMPDEST POP PUSH2 0x70 PUSH2 0x114 CALLDATASIZE PUSH1 0x4 PUSH2 0xB62 JUMP JUMPDEST PUSH2 0x4BF JUMP JUMPDEST CALLVALUE DUP1 ISZERO PUSH2 0x125 JUMPI PUSH1 0x0 DUP1 REVERT JUMPDEST POP PUSH2 0x12E PUSH2 0x5C5 JUMP JUMPDEST PUSH1 0x40 MLOAD PUSH2 0x7A SWAP2 SWAP1 PUSH2 0xC8F JUMP JUMPDEST PUSH1 0x0 DUP2 DUP2 MSTORE PUSH1 0x20 DUP2 DUP2 MSTORE PUSH1 0x40 SWAP2 DUP3 SWAP1 KECCAK256 PUSH1 0x7 DUP2 ADD DUP1 SLOAD DUP5 MLOAD DUP2 DUP6 MUL DUP2 ADD DUP6 ADD SWAP1 SWAP6 MSTORE DUP1 DUP6 MSTORE PUSH1 0x60 SWAP5 DUP6 SWAP5 SWAP3 SWAP4 PUSH1 0x8 ADD SWAP3 SWAP1 SWAP2 DUP5 SWAP2 DUP4 ADD DUP3 DUP3 DUP1 ISZERO PUSH2 0x1A8 JUMPI PUSH1 0x20 MUL DUP3 ADD SWAP2 SWAP1 PUSH1 0x0 MSTORE PUSH1 0x20 PUSH1 0x0 KECCAK256 SWAP1 JUMPDEST DUP2 SLOAD PUSH1 0x1 PUSH1 0x1 PUSH1 0xA0 SHL SUB AND DUP2 MSTORE PUSH1 0x1 SWAP1 SWAP2 ADD SWAP1 PUSH1 0x20 ADD DUP1 DUP4 GT PUSH2 0x18A JUMPI JUMPDEST POP POP POP POP POP SWAP2 POP DUP1 DUP1 SLOAD DUP1 PUSH1 0x20 MUL PUSH1 0x20 ADD PUSH1 0x40 MLOAD SWAP1 DUP2 ADD PUSH1 0x40 MSTORE DUP1 SWAP3 SWAP2 SWAP1 DUP2 DUP2 MSTORE PUSH1 0x20 ADD DUP3 DUP1 SLOAD DUP1 ISZERO PUSH2 0x1FA JUMPI PUSH1 0x20 MUL DUP3 ADD SWAP2 SWAP1 PUSH1 0x0 MSTORE PUSH1 0x20 PUSH1 0x0 KECCAK256 SWAP1 JUMPDEST DUP2 SLOAD DUP2 MSTORE PUSH1 0x20 ADD SWAP1 PUSH1 0x1 ADD SWAP1 DUP1 DUP4 GT PUSH2 0x1E6 JUMPI JUMPDEST POP POP POP POP POP SWAP1 POP SWAP2 POP SWAP2 POP SWAP2 POP SWAP2 JUMP JUMPDEST PUSH1 0x0 PUSH1 0x20 DUP2 SWAP1 MSTORE SWAP1 DUP2 MSTORE PUSH1 0x40 SWAP1 KECCAK256 DUP1 SLOAD PUSH1 0x1 DUP3 ADD DUP1 SLOAD PUSH1 0x1 PUSH1 0x1 PUSH1 0xA0 SHL SUB SWAP1 SWAP3 AND SWAP3 SWAP2 PUSH2 0x236 SWAP1 PUSH2 0xD9C JUMP JUMPDEST DUP1 PUSH1 0x1F ADD PUSH1 0x20 DUP1 SWAP2 DIV MUL PUSH1 0x20 ADD PUSH1 0x40 MLOAD SWAP1 DUP2 ADD PUSH1 0x40 MSTORE DUP1 SWAP3 SWAP2 SWAP1 DUP2 DUP2 MSTORE PUSH1 0x20 ADD DUP3 DUP1 SLOAD PUSH2 0x262 SWAP1 PUSH2 0xD9C JUMP JUMPDEST DUP1 ISZERO PUSH2 0x2AF JUMPI DUP1 PUSH1 0x1F LT PUSH2 0x284 JUMPI PUSH2 0x100 DUP1 DUP4 SLOAD DIV MUL DUP4 MSTORE SWAP2 PUSH1 0x20 ADD SWAP2 PUSH2 0x2AF JUMP JUMPDEST DUP3 ADD SWAP2 SWAP1 PUSH1 0x0 MSTORE PUSH1 0x20 PUSH1 0x0 KECCAK256 SWAP1 JUMPDEST DUP2 SLOAD DUP2 MSTORE SWAP1 PUSH1 0x1 ADD SWAP1 PUSH1 0x20 ADD DUP1 DUP4 GT PUSH2 0x292 JUMPI DUP3 SWAP1 SUB PUSH1 0x1F AND DUP3 ADD SWAP2 JUMPDEST POP POP POP POP POP SWAP1 DUP1 PUSH1 0x2 ADD DUP1 SLOAD PUSH2 0x2C4 SWAP1 PUSH2 0xD9C JUMP JUMPDEST DUP1 PUSH1 0x1F ADD PUSH1 0x20 DUP1 SWAP2 DIV MUL PUSH1 0x20 ADD PUSH1 0x40 MLOAD SWAP1 DUP2 ADD PUSH1 0x40 MSTORE DUP1 SWAP3 SWAP2 SWAP1 DUP2 DUP2 MSTORE PUSH1 0x20 ADD DUP3 DUP1 SLOAD PUSH2 0x2F0 SWAP1 PUSH2 0xD9C JUMP JUMPDEST DUP1 ISZERO PUSH2 0x33D JUMPI DUP1 PUSH1 0x1F LT PUSH2 0x312 JUMPI PUSH2 0x100 DUP1 DUP4 SLOAD DIV MUL DUP4 MSTORE SWAP2 PUSH1 0x20 ADD SWAP2 PUSH2 0x33D JUMP JUMPDEST DUP3 ADD SWAP2 SWAP1 PUSH1 0x0 MSTORE PUSH1 0x20 PUSH1 0x0 KECCAK256 SWAP1 JUMPDEST DUP2 SLOAD DUP2 MSTORE SWAP1 PUSH1 0x1 ADD SWAP1 PUSH1 0x20 ADD DUP1 DUP4 GT PUSH2 0x320 JUMPI DUP3 SWAP1 SUB PUSH1 0x1F AND DUP3 ADD SWAP2 JUMPDEST POP POP POP POP POP SWAP1 DUP1 PUSH1 0x3 ADD SLOAD SWAP1 DUP1 PUSH1 0x4 ADD SLOAD SWAP1 DUP1 PUSH1 0x5 ADD SLOAD SWAP1 DUP1 PUSH1 0x6 ADD DUP1 SLOAD PUSH2 0x364 SWAP1 PUSH2 0xD9C JUMP JUMPDEST DUP1 PUSH1 0x1F ADD PUSH1 0x20 DUP1 SWAP2 DIV MUL PUSH1 0x20 ADD PUSH1 0x40 MLOAD SWAP1 DUP2 ADD PUSH1 0x40 MSTORE DUP1 SWAP3 SWAP2 SWAP1 DUP2 DUP2 MSTORE PUSH1 0x20 ADD DUP3 DUP1 SLOAD PUSH2 0x390 SWAP1 PUSH2 0xD9C JUMP JUMPDEST DUP1 ISZERO PUSH2 0x3DD JUMPI DUP1 PUSH1 0x1F LT PUSH2 0x3B2 JUMPI PUSH2 0x100 DUP1 DUP4 SLOAD DIV MUL DUP4 MSTORE SWAP2 PUSH1 0x20 ADD SWAP2 PUSH2 0x3DD JUMP JUMPDEST DUP3 ADD SWAP2 SWAP1 PUSH1 0x0 MSTORE PUSH1 0x20 PUSH1 0x0 KECCAK256 SWAP1 JUMPDEST DUP2 SLOAD DUP2 MSTORE SWAP1 PUSH1 0x1 ADD SWAP1 PUSH1 0x20 ADD DUP1 DUP4 GT PUSH2 0x3C0 JUMPI DUP3 SWAP1 SUB PUSH1 0x1F AND DUP3 ADD SWAP2 JUMPDEST POP POP POP POP POP SWAP1 POP DUP8 JUMP JUMPDEST PUSH1 0x0 DUP2 DUP2 MSTORE PUSH1 0x20 DUP2 DUP2 MSTORE PUSH1 0x40 DUP1 DUP4 KECCAK256 PUSH1 0x7 DUP2 ADD DUP1 SLOAD PUSH1 0x1 DUP2 DUP2 ADD DUP4 SSTORE SWAP2 DUP7 MSTORE DUP5 DUP7 KECCAK256 ADD DUP1 SLOAD PUSH1 0x1 PUSH1 0x1 PUSH1 0xA0 SHL SUB NOT AND CALLER OR SWAP1 SSTORE PUSH1 0x8 DUP3 ADD DUP1 SLOAD SWAP2 DUP3 ADD DUP2 SSTORE DUP6 MSTORE SWAP3 DUP5 KECCAK256 CALLVALUE SWAP4 ADD DUP4 SWAP1 SSTORE DUP1 SLOAD SWAP2 MLOAD SWAP3 SWAP4 SWAP1 SWAP3 SWAP1 SWAP2 PUSH1 0x1 PUSH1 0x1 PUSH1 0xA0 SHL SUB AND SWAP1 DUP5 SWAP1 PUSH2 0x457 SWAP1 PUSH1 0x1 PUSH1 0xFD SHL DUP2 MSTORE PUSH1 0x1 ADD SWAP1 JUMP JUMPDEST PUSH1 0x0 PUSH1 0x40 MLOAD DUP1 DUP4 SUB DUP2 DUP6 DUP8 GAS CALL SWAP3 POP POP POP RETURNDATASIZE DUP1 PUSH1 0x0 DUP2 EQ PUSH2 0x494 JUMPI PUSH1 0x40 MLOAD SWAP2 POP PUSH1 0x1F NOT PUSH1 0x3F RETURNDATASIZE ADD AND DUP3 ADD PUSH1 0x40 MSTORE RETURNDATASIZE DUP3 MSTORE RETURNDATASIZE PUSH1 0x0 PUSH1 0x20 DUP5 ADD RETURNDATACOPY PUSH2 0x499 JUMP JUMPDEST PUSH1 0x60 SWAP2 POP JUMPDEST POP POP SWAP1 POP DUP1 ISZERO PUSH2 0x4B9 JUMPI DUP3 DUP3 PUSH1 0x5 ADD SLOAD PUSH2 0x4B3 SWAP2 SWAP1 PUSH2 0xDE6 JUMP JUMPDEST PUSH1 0x5 DUP4 ADD SSTORE JUMPDEST POP POP POP POP JUMP JUMPDEST PUSH1 0x1 SLOAD PUSH1 0x0 SWAP1 DUP2 MSTORE PUSH1 0x20 DUP2 SWAP1 MSTORE PUSH1 0x40 DUP2 KECCAK256 PUSH1 0x4 DUP2 ADD SLOAD TIMESTAMP GT PUSH2 0x53B JUMPI PUSH1 0x40 MLOAD PUSH3 0x461BCD PUSH1 0xE5 SHL DUP2 MSTORE PUSH1 0x20 PUSH1 0x4 DUP3 ADD MSTORE PUSH1 0x2B PUSH1 0x24 DUP3 ADD MSTORE PUSH32 0x54686520646561646C696E652073686F756C642062652061206461746520696E PUSH1 0x44 DUP3 ADD MSTORE PUSH11 0x2074686520667574757265 PUSH1 0xA8 SHL PUSH1 0x64 DUP3 ADD MSTORE PUSH1 0x84 ADD PUSH1 0x40 MLOAD DUP1 SWAP2 SUB SWAP1 REVERT JUMPDEST DUP1 SLOAD PUSH1 0x1 PUSH1 0x1 PUSH1 0xA0 SHL SUB NOT AND PUSH1 0x1 PUSH1 0x1 PUSH1 0xA0 SHL SUB DUP10 AND OR DUP2 SSTORE PUSH1 0x1 DUP2 ADD PUSH2 0x562 DUP9 DUP3 PUSH2 0xE4E JUMP JUMPDEST POP PUSH1 0x2 DUP2 ADD PUSH2 0x571 DUP8 DUP3 PUSH2 0xE4E JUMP JUMPDEST POP PUSH1 0x3 DUP2 ADD DUP6 SWAP1 SSTORE PUSH1 0x4 DUP2 ADD DUP5 SWAP1 SSTORE PUSH1 0x0 PUSH1 0x5 DUP3 ADD SSTORE PUSH1 0x6 DUP2 ADD PUSH2 0x595 DUP5 DUP3 PUSH2 0xE4E JUMP JUMPDEST POP PUSH1 0x1 DUP1 SLOAD SWAP1 PUSH1 0x0 PUSH2 0x5A6 DUP4 PUSH2 0xF0E JUMP JUMPDEST SWAP2 SWAP1 POP SSTORE POP PUSH1 0x1 DUP1 SLOAD PUSH2 0x5B9 SWAP2 SWAP1 PUSH2 0xF27 JUMP JUMPDEST SWAP9 SWAP8 POP POP POP POP POP POP POP POP JUMP JUMPDEST PUSH1 0x60 PUSH1 0x0 PUSH1 0x1 SLOAD PUSH8 0xFFFFFFFFFFFFFFFF DUP2 GT ISZERO PUSH2 0x5E4 JUMPI PUSH2 0x5E4 PUSH2 0xABF JUMP JUMPDEST PUSH1 0x40 MLOAD SWAP1 DUP1 DUP3 MSTORE DUP1 PUSH1 0x20 MUL PUSH1 0x20 ADD DUP3 ADD PUSH1 0x40 MSTORE DUP1 ISZERO PUSH2 0x66D JUMPI DUP2 PUSH1 0x20 ADD JUMPDEST PUSH2 0x65A PUSH1 0x40 MLOAD DUP1 PUSH2 0x120 ADD PUSH1 0x40 MSTORE DUP1 PUSH1 0x0 PUSH1 0x1 PUSH1 0x1 PUSH1 0xA0 SHL SUB AND DUP2 MSTORE PUSH1 0x20 ADD PUSH1 0x60 DUP2 MSTORE PUSH1 0x20 ADD PUSH1 0x60 DUP2 MSTORE PUSH1 0x20 ADD PUSH1 0x0 DUP2 MSTORE PUSH1 0x20 ADD PUSH1 0x0 DUP2 MSTORE PUSH1 0x20 ADD PUSH1 0x0 DUP2 MSTORE PUSH1 0x20 ADD PUSH1 0x60 DUP2 MSTORE PUSH1 0x20 ADD PUSH1 0x60 DUP2 MSTORE PUSH1 0x20 ADD PUSH1 0x60 DUP2 MSTORE POP SWAP1 JUMP JUMPDEST DUP2 MSTORE PUSH1 0x20 ADD SWAP1 PUSH1 0x1 SWAP1 SUB SWAP1 DUP2 PUSH2 0x602 JUMPI SWAP1 POP JUMPDEST POP SWAP1 POP PUSH1 0x0 JUMPDEST PUSH1 0x1 SLOAD DUP2 LT ISZERO PUSH2 0x96C JUMPI PUSH1 0x0 DUP2 DUP2 MSTORE PUSH1 0x20 DUP2 DUP2 MSTORE PUSH1 0x40 SWAP2 DUP3 SWAP1 KECCAK256 DUP3 MLOAD PUSH2 0x120 DUP2 ADD SWAP1 SWAP4 MSTORE DUP1 SLOAD PUSH1 0x1 PUSH1 0x1 PUSH1 0xA0 SHL SUB AND DUP4 MSTORE PUSH1 0x1 DUP2 ADD DUP1 SLOAD SWAP2 SWAP4 SWAP3 DUP5 SWAP3 SWAP1 DUP5 ADD SWAP2 SWAP1 PUSH2 0x6BD SWAP1 PUSH2 0xD9C JUMP JUMPDEST DUP1 PUSH1 0x1F ADD PUSH1 0x20 DUP1 SWAP2 DIV MUL PUSH1 0x20 ADD PUSH1 0x40 MLOAD SWAP1 DUP2 ADD PUSH1 0x40 MSTORE DUP1 SWAP3 SWAP2 SWAP1 DUP2 DUP2 MSTORE PUSH1 0x20 ADD DUP3 DUP1 SLOAD PUSH2 0x6E9 SWAP1 PUSH2 0xD9C JUMP JUMPDEST DUP1 ISZERO PUSH2 0x736 JUMPI DUP1 PUSH1 0x1F LT PUSH2 0x70B JUMPI PUSH2 0x100 DUP1 DUP4 SLOAD DIV MUL DUP4 MSTORE SWAP2 PUSH1 0x20 ADD SWAP2 PUSH2 0x736 JUMP JUMPDEST DUP3 ADD SWAP2 SWAP1 PUSH1 0x0 MSTORE PUSH1 0x20 PUSH1 0x0 KECCAK256 SWAP1 JUMPDEST DUP2 SLOAD DUP2 MSTORE SWAP1 PUSH1 0x1 ADD SWAP1 PUSH1 0x20 ADD DUP1 DUP4 GT PUSH2 0x719 JUMPI DUP3 SWAP1 SUB PUSH1 0x1F AND DUP3 ADD SWAP2 JUMPDEST POP POP POP POP POP DUP2 MSTORE PUSH1 0x20 ADD PUSH1 0x2 DUP3 ADD DUP1 SLOAD PUSH2 0x74F SWAP1 PUSH2 0xD9C JUMP JUMPDEST DUP1 PUSH1 0x1F ADD PUSH1 0x20 DUP1 SWAP2 DIV MUL PUSH1 0x20 ADD PUSH1 0x40 MLOAD SWAP1 DUP2 ADD PUSH1 0x40 MSTORE DUP1 SWAP3 SWAP2 SWAP1 DUP2 DUP2 MSTORE PUSH1 0x20 ADD DUP3 DUP1 SLOAD PUSH2 0x77B SWAP1 PUSH2 0xD9C JUMP JUMPDEST DUP1 ISZERO PUSH2 0x7C8 JUMPI DUP1 PUSH1 0x1F LT PUSH2 0x79D JUMPI PUSH2 0x100 DUP1 DUP4 SLOAD DIV MUL DUP4 MSTORE SWAP2 PUSH1 0x20 ADD SWAP2 PUSH2 0x7C8 JUMP JUMPDEST DUP3 ADD SWAP2 SWAP1 PUSH1 0x0 MSTORE PUSH1 0x20 PUSH1 0x0 KECCAK256 SWAP1 JUMPDEST DUP2 SLOAD DUP2 MSTORE SWAP1 PUSH1 0x1 ADD SWAP1 PUSH1 0x20 ADD DUP1 DUP4 GT PUSH2 0x7AB JUMPI DUP3 SWAP1 SUB PUSH1 0x1F AND DUP3 ADD SWAP2 JUMPDEST POP POP POP POP POP DUP2 MSTORE PUSH1 0x20 ADD PUSH1 0x3 DUP3 ADD SLOAD DUP2 MSTORE PUSH1 0x20 ADD PUSH1 0x4 DUP3 ADD SLOAD DUP2 MSTORE PUSH1 0x20 ADD PUSH1 0x5 DUP3 ADD SLOAD DUP2 MSTORE PUSH1 0x20 ADD PUSH1 0x6 DUP3 ADD DUP1 SLOAD PUSH2 0x7FF SWAP1 PUSH2 0xD9C JUMP JUMPDEST DUP1 PUSH1 0x1F ADD PUSH1 0x20 DUP1 SWAP2 DIV MUL PUSH1 0x20 ADD PUSH1 0x40 MLOAD SWAP1 DUP2 ADD PUSH1 0x40 MSTORE DUP1 SWAP3 SWAP2 SWAP1 DUP2 DUP2 MSTORE PUSH1 0x20 ADD DUP3 DUP1 SLOAD PUSH2 0x82B SWAP1 PUSH2 0xD9C JUMP JUMPDEST DUP1 ISZERO PUSH2 0x878 JUMPI DUP1 PUSH1 0x1F LT PUSH2 0x84D JUMPI PUSH2 0x100 DUP1 DUP4 SLOAD DIV MUL DUP4 MSTORE SWAP2 PUSH1 0x20 ADD SWAP2 PUSH2 0x878 JUMP JUMPDEST DUP3 ADD SWAP2 SWAP1 PUSH1 0x0 MSTORE PUSH1 0x20 PUSH1 0x0 KECCAK256 SWAP1 JUMPDEST DUP2 SLOAD DUP2 MSTORE SWAP1 PUSH1 0x1 ADD SWAP1 PUSH1 0x20 ADD DUP1 DUP4 GT PUSH2 0x85B JUMPI DUP3 SWAP1 SUB PUSH1 0x1F AND DUP3 ADD SWAP2 JUMPDEST POP POP POP POP POP DUP2 MSTORE PUSH1 0x20 ADD PUSH1 0x7 DUP3 ADD DUP1 SLOAD DUP1 PUSH1 0x20 MUL PUSH1 0x20 ADD PUSH1 0x40 MLOAD SWAP1 DUP2 ADD PUSH1 0x40 MSTORE DUP1 SWAP3 SWAP2 SWAP1 DUP2 DUP2 MSTORE PUSH1 0x20 ADD DUP3 DUP1 SLOAD DUP1 ISZERO PUSH2 0x8DA JUMPI PUSH1 0x20 MUL DUP3 ADD SWAP2 SWAP1 PUSH1 0x0 MSTORE PUSH1 0x20 PUSH1 0x0 KECCAK256 SWAP1 JUMPDEST DUP2 SLOAD PUSH1 0x1 PUSH1 0x1 PUSH1 0xA0 SHL SUB AND DUP2 MSTORE PUSH1 0x1 SWAP1 SWAP2 ADD SWAP1 PUSH1 0x20 ADD DUP1 DUP4 GT PUSH2 0x8BC JUMPI JUMPDEST POP POP POP POP POP DUP2 MSTORE PUSH1 0x20 ADD PUSH1 0x8 DUP3 ADD DUP1 SLOAD DUP1 PUSH1 0x20 MUL PUSH1 0x20 ADD PUSH1 0x40 MLOAD SWAP1 DUP2 ADD PUSH1 0x40 MSTORE DUP1 SWAP3 SWAP2 SWAP1 DUP2 DUP2 MSTORE PUSH1 0x20 ADD DUP3 DUP1 SLOAD DUP1 ISZERO PUSH2 0x932 JUMPI PUSH1 0x20 MUL DUP3 ADD SWAP2 SWAP1 PUSH1 0x0 MSTORE PUSH1 0x20 PUSH1 0x0 KECCAK256 SWAP1 JUMPDEST DUP2 SLOAD DUP2 MSTORE PUSH1 0x20 ADD SWAP1 PUSH1 0x1 ADD SWAP1 DUP1 DUP4 GT PUSH2 0x91E JUMPI JUMPDEST POP POP POP POP POP DUP2 MSTORE POP POP DUP4 DUP4 DUP2 MLOAD DUP2 LT PUSH2 0x94D JUMPI PUSH2 0x94D PUSH2 0xF3A JUMP JUMPDEST PUSH1 0x20 MUL PUSH1 0x20 ADD ADD DUP2 SWAP1 MSTORE POP POP DUP1 DUP1 PUSH2 0x964 SWAP1 PUSH2 0xF0E JUMP JUMPDEST SWAP2 POP POP PUSH2 0x673 JUMP JUMPDEST POP SWAP2 SWAP1 POP JUMP JUMPDEST PUSH1 0x0 PUSH1 0x20 DUP3 DUP5 SUB SLT ISZERO PUSH2 0x984 JUMPI PUSH1 0x0 DUP1 REVERT JUMPDEST POP CALLDATALOAD SWAP2 SWAP1 POP JUMP JUMPDEST PUSH1 0x40 DUP1 DUP3 MSTORE DUP4 MLOAD SWAP1 DUP3 ADD DUP2 SWAP1 MSTORE PUSH1 0x0 SWAP1 PUSH1 0x20 SWAP1 PUSH1 0x60 DUP5 ADD SWAP1 DUP3 DUP8 ADD DUP5 JUMPDEST DUP3 DUP2 LT ISZERO PUSH2 0x9CD JUMPI DUP2 MLOAD PUSH1 0x1 PUSH1 0x1 PUSH1 0xA0 SHL SUB AND DUP5 MSTORE SWAP3 DUP5 ADD SWAP3 SWAP1 DUP5 ADD SWAP1 PUSH1 0x1 ADD PUSH2 0x9A8 JUMP JUMPDEST POP POP POP DUP4 DUP2 SUB DUP3 DUP6 ADD MSTORE DUP5 MLOAD DUP1 DUP3 MSTORE DUP6 DUP4 ADD SWAP2 DUP4 ADD SWAP1 PUSH1 0x0 JUMPDEST DUP2 DUP2 LT ISZERO PUSH2 0xA02 JUMPI DUP4 MLOAD DUP4 MSTORE SWAP3 DUP5 ADD SWAP3 SWAP2 DUP5 ADD SWAP2 PUSH1 0x1 ADD PUSH2 0x9E6 JUMP JUMPDEST POP SWAP1 SWAP8 SWAP7 POP POP POP POP POP POP POP JUMP JUMPDEST PUSH1 0x0 DUP2 MLOAD DUP1 DUP5 MSTORE PUSH1 0x0 JUMPDEST DUP2 DUP2 LT ISZERO PUSH2 0xA35 JUMPI PUSH1 0x20 DUP2 DUP6 ADD DUP2 ADD MLOAD DUP7 DUP4 ADD DUP3 ADD MSTORE ADD PUSH2 0xA19 JUMP JUMPDEST POP PUSH1 0x0 PUSH1 0x20 DUP3 DUP7 ADD ADD MSTORE PUSH1 0x20 PUSH1 0x1F NOT PUSH1 0x1F DUP4 ADD AND DUP6 ADD ADD SWAP2 POP POP SWAP3 SWAP2 POP POP JUMP JUMPDEST PUSH1 0x1 PUSH1 0x1 PUSH1 0xA0 SHL SUB DUP9 AND DUP2 MSTORE PUSH1 0xE0 PUSH1 0x20 DUP3 ADD DUP2 SWAP1 MSTORE PUSH1 0x0 SWAP1 PUSH2 0xA79 SWAP1 DUP4 ADD DUP10 PUSH2 0xA0F JUMP JUMPDEST DUP3 DUP2 SUB PUSH1 0x40 DUP5 ADD MSTORE PUSH2 0xA8B DUP2 DUP10 PUSH2 0xA0F JUMP JUMPDEST SWAP1 POP DUP7 PUSH1 0x60 DUP5 ADD MSTORE DUP6 PUSH1 0x80 DUP5 ADD MSTORE DUP5 PUSH1 0xA0 DUP5 ADD MSTORE DUP3 DUP2 SUB PUSH1 0xC0 DUP5 ADD MSTORE PUSH2 0xAB1 DUP2 DUP6 PUSH2 0xA0F JUMP JUMPDEST SWAP11 SWAP10 POP POP POP POP POP POP POP POP POP POP JUMP JUMPDEST PUSH4 0x4E487B71 PUSH1 0xE0 SHL PUSH1 0x0 MSTORE PUSH1 0x41 PUSH1 0x4 MSTORE PUSH1 0x24 PUSH1 0x0 REVERT JUMPDEST PUSH1 0x0 DUP3 PUSH1 0x1F DUP4 ADD SLT PUSH2 0xAE6 JUMPI PUSH1 0x0 DUP1 REVERT JUMPDEST DUP2 CALLDATALOAD PUSH8 0xFFFFFFFFFFFFFFFF DUP1 DUP3 GT ISZERO PUSH2 0xB01 JUMPI PUSH2 0xB01 PUSH2 0xABF JUMP JUMPDEST PUSH1 0x40 MLOAD PUSH1 0x1F DUP4 ADD PUSH1 0x1F NOT SWAP1 DUP2 AND PUSH1 0x3F ADD AND DUP2 ADD SWAP1 DUP3 DUP3 GT DUP2 DUP4 LT OR ISZERO PUSH2 0xB29 JUMPI PUSH2 0xB29 PUSH2 0xABF JUMP JUMPDEST DUP2 PUSH1 0x40 MSTORE DUP4 DUP2 MSTORE DUP7 PUSH1 0x20 DUP6 DUP9 ADD ADD GT ISZERO PUSH2 0xB42 JUMPI PUSH1 0x0 DUP1 REVERT JUMPDEST DUP4 PUSH1 0x20 DUP8 ADD PUSH1 0x20 DUP4 ADD CALLDATACOPY PUSH1 0x0 PUSH1 0x20 DUP6 DUP4 ADD ADD MSTORE DUP1 SWAP5 POP POP POP POP POP SWAP3 SWAP2 POP POP JUMP JUMPDEST PUSH1 0x0 DUP1 PUSH1 0x0 DUP1 PUSH1 0x0 DUP1 PUSH1 0xC0 DUP8 DUP10 SUB SLT ISZERO PUSH2 0xB7B JUMPI PUSH1 0x0 DUP1 REVERT JUMPDEST DUP7 CALLDATALOAD PUSH1 0x1 PUSH1 0x1 PUSH1 0xA0 SHL SUB DUP2 AND DUP2 EQ PUSH2 0xB92 JUMPI PUSH1 0x0 DUP1 REVERT JUMPDEST SWAP6 POP PUSH1 0x20 DUP8 ADD CALLDATALOAD PUSH8 0xFFFFFFFFFFFFFFFF DUP1 DUP3 GT ISZERO PUSH2 0xBAF JUMPI PUSH1 0x0 DUP1 REVERT JUMPDEST PUSH2 0xBBB DUP11 DUP4 DUP12 ADD PUSH2 0xAD5 JUMP JUMPDEST SWAP7 POP PUSH1 0x40 DUP10 ADD CALLDATALOAD SWAP2 POP DUP1 DUP3 GT ISZERO PUSH2 0xBD1 JUMPI PUSH1 0x0 DUP1 REVERT JUMPDEST PUSH2 0xBDD DUP11 DUP4 DUP12 ADD PUSH2 0xAD5 JUMP JUMPDEST SWAP6 POP PUSH1 0x60 DUP10 ADD CALLDATALOAD SWAP5 POP PUSH1 0x80 DUP10 ADD CALLDATALOAD SWAP4 POP PUSH1 0xA0 DUP10 ADD CALLDATALOAD SWAP2 POP DUP1 DUP3 GT ISZERO PUSH2 0xC01 JUMPI PUSH1 0x0 DUP1 REVERT JUMPDEST POP PUSH2 0xC0E DUP10 DUP3 DUP11 ADD PUSH2 0xAD5 JUMP JUMPDEST SWAP2 POP POP SWAP3 SWAP6 POP SWAP3 SWAP6 POP SWAP3 SWAP6 JUMP JUMPDEST PUSH1 0x0 DUP2 MLOAD DUP1 DUP5 MSTORE PUSH1 0x20 DUP1 DUP6 ADD SWAP5 POP DUP1 DUP5 ADD PUSH1 0x0 JUMPDEST DUP4 DUP2 LT ISZERO PUSH2 0xC54 JUMPI DUP2 MLOAD PUSH1 0x1 PUSH1 0x1 PUSH1 0xA0 SHL SUB AND DUP8 MSTORE SWAP6 DUP3 ADD SWAP6 SWAP1 DUP3 ADD SWAP1 PUSH1 0x1 ADD PUSH2 0xC2F JUMP JUMPDEST POP SWAP5 SWAP6 SWAP5 POP POP POP POP POP JUMP JUMPDEST PUSH1 0x0 DUP2 MLOAD DUP1 DUP5 MSTORE PUSH1 0x20 DUP1 DUP6 ADD SWAP5 POP DUP1 DUP5 ADD PUSH1 0x0 JUMPDEST DUP4 DUP2 LT ISZERO PUSH2 0xC54 JUMPI DUP2 MLOAD DUP8 MSTORE SWAP6 DUP3 ADD SWAP6 SWAP1 DUP3 ADD SWAP1 PUSH1 0x1 ADD PUSH2 0xC73 JUMP JUMPDEST PUSH1 0x0 PUSH1 0x20 DUP1 DUP4 ADD DUP2 DUP5 MSTORE DUP1 DUP6 MLOAD DUP1 DUP4 MSTORE PUSH1 0x40 SWAP3 POP DUP3 DUP7 ADD SWAP2 POP DUP3 DUP2 PUSH1 0x5 SHL DUP8 ADD ADD DUP5 DUP9 ADD PUSH1 0x0 JUMPDEST DUP4 DUP2 LT ISZERO PUSH2 0xD8E JUMPI DUP9 DUP4 SUB PUSH1 0x3F NOT ADD DUP6 MSTORE DUP2 MLOAD DUP1 MLOAD PUSH1 0x1 PUSH1 0x1 PUSH1 0xA0 SHL SUB AND DUP5 MSTORE PUSH2 0x120 DUP9 DUP3 ADD MLOAD DUP2 DUP11 DUP8 ADD MSTORE PUSH2 0xCEE DUP3 DUP8 ADD DUP3 PUSH2 0xA0F JUMP JUMPDEST SWAP2 POP POP DUP8 DUP3 ADD MLOAD DUP6 DUP3 SUB DUP10 DUP8 ADD MSTORE PUSH2 0xD06 DUP3 DUP3 PUSH2 0xA0F JUMP JUMPDEST PUSH1 0x60 DUP5 DUP2 ADD MLOAD SWAP1 DUP9 ADD MSTORE PUSH1 0x80 DUP1 DUP6 ADD MLOAD SWAP1 DUP9 ADD MSTORE PUSH1 0xA0 DUP1 DUP6 ADD MLOAD SWAP1 DUP9 ADD MSTORE PUSH1 0xC0 DUP1 DUP6 ADD MLOAD DUP9 DUP4 SUB DUP3 DUP11 ADD MSTORE SWAP2 SWAP4 POP SWAP2 POP PUSH2 0xD40 DUP4 DUP3 PUSH2 0xA0F JUMP JUMPDEST SWAP3 POP POP POP PUSH1 0xE0 DUP1 DUP4 ADD MLOAD DUP7 DUP4 SUB DUP3 DUP9 ADD MSTORE PUSH2 0xD5B DUP4 DUP3 PUSH2 0xC1B JUMP JUMPDEST SWAP3 POP POP POP PUSH2 0x100 DUP1 DUP4 ADD MLOAD SWAP3 POP DUP6 DUP3 SUB DUP2 DUP8 ADD MSTORE POP PUSH2 0xD7A DUP2 DUP4 PUSH2 0xC5F JUMP JUMPDEST SWAP7 DUP10 ADD SWAP7 SWAP5 POP POP POP SWAP1 DUP7 ADD SWAP1 PUSH1 0x1 ADD PUSH2 0xCB6 JUMP JUMPDEST POP SWAP1 SWAP9 SWAP8 POP POP POP POP POP POP POP POP JUMP JUMPDEST PUSH1 0x1 DUP2 DUP2 SHR SWAP1 DUP3 AND DUP1 PUSH2 0xDB0 JUMPI PUSH1 0x7F DUP3 AND SWAP2 POP JUMPDEST PUSH1 0x20 DUP3 LT DUP2 SUB PUSH2 0x96C JUMPI PUSH4 0x4E487B71 PUSH1 0xE0 SHL PUSH1 0x0 MSTORE PUSH1 0x22 PUSH1 0x4 MSTORE PUSH1 0x24 PUSH1 0x0 REVERT JUMPDEST PUSH4 0x4E487B71 PUSH1 0xE0 SHL PUSH1 0x0 MSTORE PUSH1 0x11 PUSH1 0x4 MSTORE PUSH1 0x24 PUSH1 0x0 REVERT JUMPDEST DUP1 DUP3 ADD DUP1 DUP3 GT ISZERO PUSH2 0xDF9 JUMPI PUSH2 0xDF9 PUSH2 0xDD0 JUMP JUMPDEST SWAP3 SWAP2 POP POP JUMP JUMPDEST PUSH1 0x1F DUP3 GT ISZERO PUSH2 0xE49 JUMPI PUSH1 0x0 DUP2 DUP2 MSTORE PUSH1 0x20 DUP2 KECCAK256 PUSH1 0x1F DUP6 ADD PUSH1 0x5 SHR DUP2 ADD PUSH1 0x20 DUP7 LT ISZERO PUSH2 0xE26 JUMPI POP DUP1 JUMPDEST PUSH1 0x1F DUP6 ADD PUSH1 0x5 SHR DUP3 ADD SWAP2 POP JUMPDEST DUP2 DUP2 LT ISZERO PUSH2 0xE45 JUMPI DUP3 DUP2 SSTORE PUSH1 0x1 ADD PUSH2 0xE32 JUMP JUMPDEST POP POP POP JUMPDEST POP POP POP JUMP JUMPDEST DUP2 MLOAD PUSH8 0xFFFFFFFFFFFFFFFF DUP2 GT ISZERO PUSH2 0xE68 JUMPI PUSH2 0xE68 PUSH2 0xABF JUMP JUMPDEST PUSH2 0xE7C DUP2 PUSH2 0xE76 DUP5 SLOAD PUSH2 0xD9C JUMP JUMPDEST DUP5 PUSH2 0xDFF JUMP JUMPDEST PUSH1 0x20 DUP1 PUSH1 0x1F DUP4 GT PUSH1 0x1 DUP2 EQ PUSH2 0xEB1 JUMPI PUSH1 0x0 DUP5 ISZERO PUSH2 0xE99 JUMPI POP DUP6 DUP4 ADD MLOAD JUMPDEST PUSH1 0x0 NOT PUSH1 0x3 DUP7 SWAP1 SHL SHR NOT AND PUSH1 0x1 DUP6 SWAP1 SHL OR DUP6 SSTORE PUSH2 0xE45 JUMP JUMPDEST PUSH1 0x0 DUP6 DUP2 MSTORE PUSH1 0x20 DUP2 KECCAK256 PUSH1 0x1F NOT DUP7 AND SWAP2 JUMPDEST DUP3 DUP2 LT ISZERO PUSH2 0xEE0 JUMPI DUP9 DUP7 ADD MLOAD DUP3 SSTORE SWAP5 DUP5 ADD SWAP5 PUSH1 0x1 SWAP1 SWAP2 ADD SWAP1 DUP5 ADD PUSH2 0xEC1 JUMP JUMPDEST POP DUP6 DUP3 LT ISZERO PUSH2 0xEFE JUMPI DUP8 DUP6 ADD MLOAD PUSH1 0x0 NOT PUSH1 0x3 DUP9 SWAP1 SHL PUSH1 0xF8 AND SHR NOT AND DUP2 SSTORE JUMPDEST POP POP POP POP POP PUSH1 0x1 SWAP1 DUP2 SHL ADD SWAP1 SSTORE POP JUMP JUMPDEST PUSH1 0x0 PUSH1 0x1 DUP3 ADD PUSH2 0xF20 JUMPI PUSH2 0xF20 PUSH2 0xDD0 JUMP JUMPDEST POP PUSH1 0x1 ADD SWAP1 JUMP JUMPDEST DUP2 DUP2 SUB DUP2 DUP2 GT ISZERO PUSH2 0xDF9 JUMPI PUSH2 0xDF9 PUSH2 0xDD0 JUMP JUMPDEST PUSH4 0x4E487B71 PUSH1 0xE0 SHL PUSH1 0x0 MSTORE PUSH1 0x32 PUSH1 0x4 MSTORE PUSH1 0x24 PUSH1 0x0 REVERT INVALID LOG2 PUSH5 0x6970667358 0x22 SLT KECCAK256 MLOAD PUSH2 0x38BA SHR SWAP2 GT 0xC3 0xCD DUP12 PUSH2 0x5EE5 PUSH6 0xEEFED93A815D 0xAD 0x5D 0xB6 0x23 0xDE 0xD9 0xEF EQ CREATE2 PUSH6 0x9BAB64736F6C PUSH4 0x43000811 STOP CALLER "},"methodIdentifiers":{"campaigns(uint256)":"141961bc","createCampaign(address,string,string,uint256,uint256,string)":"9943e3a1","donateToCampaign(uint256)":"42a4fda8","getCampaigns()":"a6b03633","getDonators(uint256)":"0fa91fa9","numberOfCampaigns()":"07ca140d"}}}}}