{
  "_format": "hh-sol-artifact-1",
  "contractName": "CrowdFunding",
  "sourceName": "contracts/Crowdfunding.sol",
  "abi": [
    {
      "inputs": [
        {
          "internalType": "uint256",
          "name": "",
          "type": "uint256"
        }
      ],
      "name": "campaigns",
      "outputs": [
        {
          "internalType": "address",
          "name": "owner",
          "type": "address"
        },
        {
          "internalType": "string",
          "name": "title",
          "type": "string"
        },
        {
          "internalType": "string",
          "name": "description",
          "type": "string"
        },
        {
          "internalType": "uint256",
          "name": "target",
          "type": "uint256"
        },
        {
          "internalType": "uint256",
          "name": "deadline",
          "type": "uint256"
        },
        {
          "internalType": "uint256",
          "name": "amountCollected",
          "type": "uint256"
        },
        {
          "internalType": "string",
          "name": "image",
          "type": "string"
        }
      ],
      "stateMutability": "view",
      "type": "function"
    },
    {
      "inputs": [
        {
          "internalType": "address",
          "name": "_owner",
          "type": "address"
        },
        {
          "internalType": "string",
          "name": "_title",
          "type": "string"
        },
        {
          "internalType": "string",
          "name": "_description",
          "type": "string"
        },
        {
          "internalType": "uint256",
          "name": "_target",
          "type": "uint256"
        },
        {
          "internalType": "uint256",
          "name": "_deadline",
          "type": "uint256"
        },
        {
          "internalType": "string",
          "name": "_image",
          "type": "string"
        }
      ],
      "name": "createCampaign",
      "outputs": [
        {
          "internalType": "uint256",
          "name": "",
          "type": "uint256"
        }
      ],
      "stateMutability": "nonpayable",
      "type": "function"
    },
    {
      "inputs": [
        {
          "internalType": "uint256",
          "name": "_id",
          "type": "uint256"
        }
      ],
      "name": "donateToCampaign",
      "outputs": [],
      "stateMutability": "payable",
      "type": "function"
    },
    {
      "inputs": [],
      "name": "getCampaigns",
      "outputs": [
        {
          "components": [
            {
              "internalType": "address",
              "name": "owner",
              "type": "address"
            },
            {
              "internalType": "string",
              "name": "title",
              "type": "string"
            },
            {
              "internalType": "string",
              "name": "description",
              "type": "string"
            },
            {
              "internalType": "uint256",
              "name": "target",
              "type": "uint256"
            },
            {
              "internalType": "uint256",
              "name": "deadline",
              "type": "uint256"
            },
            {
              "internalType": "uint256",
              "name": "amountCollected",
              "type": "uint256"
            },
            {
              "internalType": "string",
              "name": "image",
              "type": "string"
            },
            {
              "internalType": "address[]",
              "name": "donators",
              "type": "address[]"
            },
            {
              "internalType": "uint256[]",
              "name": "donations",
              "type": "uint256[]"
            }
          ],
          "internalType": "struct CrowdFunding.Campaign[]",
          "name": "",
          "type": "tuple[]"
        }
      ],
      "stateMutability": "view",
      "type": "function"
    },
    {
      "inputs": [
        {
          "internalType": "uint256",
          "name": "_id",
          "type": "uint256"
        }
      ],
      "name": "getDonators",
      "outputs": [
        {
          "internalType": "address[]",
          "name": "",
          "type": "address[]"
        },
        {
          "internalType": "uint256[]",
          "name": "",
          "type": "uint256[]"
        }
      ],
      "stateMutability": "view",
      "type": "function"
    },
    {
      "inputs": [],
      "name": "numberOfCampaigns",
      "outputs": [
        {
          "internalType": "uint256",
          "name": "",
          "type": "uint256"
        }
      ],
      "stateMutability": "view",
      "type": "function"
    }
  ],
  "bytecode": "0x6080604052600060015534801561001557600080fd5b50610f86806100256000396000f3fe6080604052600436106100555760003560e01c806307ca140d1461005a5780630fa91fa914610083578063141961bc146100b157806342a4fda8146100e45780639943e3a1146100f9578063a6b0363314610119575b600080fd5b34801561006657600080fd5b5061007060015481565b6040519081526020015b60405180910390f35b34801561008f57600080fd5b506100a361009e366004610972565b61013b565b60405161007a92919061098b565b3480156100bd57600080fd5b506100d16100cc366004610972565b61020a565b60405161007a9796959493929190610a55565b6100f76100f2366004610972565b6103e7565b005b34801561010557600080fd5b50610070610114366004610b62565b6104bf565b34801561012557600080fd5b5061012e6105c5565b60405161007a9190610c8f565b600081815260208181526040918290206007810180548451818502810185019095528085526060948594929360080192909184918301828280156101a857602002820191906000526020600020905b81546001600160a01b0316815260019091019060200180831161018a575b50505050509150808054806020026020016040519081016040528092919081815260200182805480156101fa57602002820191906000526020600020905b8154815260200190600101908083116101e6575b5050505050905091509150915091565b600060208190529081526040902080546001820180546001600160a01b03909216929161023690610d9c565b80601f016020809104026020016040519081016040528092919081815260200182805461026290610d9c565b80156102af5780601f10610284576101008083540402835291602001916102af565b820191906000526020600020905b81548152906001019060200180831161029257829003601f168201915b5050505050908060020180546102c490610d9c565b80601f01602080910402602001604051908101604052809291908181526020018280546102f090610d9c565b801561033d5780601f106103125761010080835404028352916020019161033d565b820191906000526020600020905b81548152906001019060200180831161032057829003601f168201915b50505050509080600301549080600401549080600501549080600601805461036490610d9c565b80601f016020809104026020016040519081016040528092919081815260200182805461039090610d9c565b80156103dd5780601f106103b2576101008083540402835291602001916103dd565b820191906000526020600020905b8154815290600101906020018083116103c057829003601f168201915b5050505050905087565b600081815260208181526040808320600781018054600181810183559186528486200180546001600160a01b0319163317905560088201805491820181558552928420349301839055805491519293909290916001600160a01b031690849061045790600160fd1b815260010190565b60006040518083038185875af1925050503d8060008114610494576040519150601f19603f3d011682016040523d82523d6000602084013e610499565b606091505b5050905080156104b9578282600501546104b39190610de6565b60058301555b50505050565b60015460009081526020819052604081206004810154421161053b5760405162461bcd60e51b815260206004820152602b60248201527f54686520646561646c696e652073686f756c642062652061206461746520696e60448201526a207468652066757475726560a81b606482015260840160405180910390fd5b80546001600160a01b0319166001600160a01b038916178155600181016105628882610e4e565b50600281016105718782610e4e565b50600381018590556004810184905560006005820155600681016105958482610e4e565b50600180549060006105a683610f0e565b9190505550600180546105b99190610f27565b98975050505050505050565b6060600060015467ffffffffffffffff8111156105e4576105e4610abf565b60405190808252806020026020018201604052801561066d57816020015b61065a60405180610120016040528060006001600160a01b0316815260200160608152602001606081526020016000815260200160008152602001600081526020016060815260200160608152602001606081525090565b8152602001906001900390816106025790505b50905060005b60015481101561096c57600081815260208181526040918290208251610120810190935280546001600160a01b03168352600181018054919392849290840191906106bd90610d9c565b80601f01602080910402602001604051908101604052809291908181526020018280546106e990610d9c565b80156107365780601f1061070b57610100808354040283529160200191610736565b820191906000526020600020905b81548152906001019060200180831161071957829003601f168201915b5050505050815260200160028201805461074f90610d9c565b80601f016020809104026020016040519081016040528092919081815260200182805461077b90610d9c565b80156107c85780601f1061079d576101008083540402835291602001916107c8565b820191906000526020600020905b8154815290600101906020018083116107ab57829003601f168201915b505050505081526020016003820154815260200160048201548152602001600582015481526020016006820180546107ff90610d9c565b80601f016020809104026020016040519081016040528092919081815260200182805461082b90610d9c565b80156108785780601f1061084d57610100808354040283529160200191610878565b820191906000526020600020905b81548152906001019060200180831161085b57829003601f168201915b50505050508152602001600782018054806020026020016040519081016040528092919081815260200182805480156108da57602002820191906000526020600020905b81546001600160a01b031681526001909101906020018083116108bc575b505050505081526020016008820180548060200260200160405190810160405280929190818152602001828054801561093257602002820191906000526020600020905b81548152602001906001019080831161091e575b50505050508152505083838151811061094d5761094d610f3a565b602002602001018190525050808061096490610f0e565b915050610673565b50919050565b60006020828403121561098457600080fd5b5035919050565b604080825283519082018190526000906020906060840190828701845b828110156109cd5781516001600160a01b0316845292840192908401906001016109a8565b5050508381038285015284518082528583019183019060005b81811015610a02578351835292840192918401916001016109e6565b5090979650505050505050565b6000815180845260005b81811015610a3557602081850181015186830182015201610a19565b506000602082860101526020601f19601f83011685010191505092915050565b6001600160a01b038816815260e060208201819052600090610a7990830189610a0f565b8281036040840152610a8b8189610a0f565b90508660608401528560808401528460a084015282810360c0840152610ab18185610a0f565b9a9950505050505050505050565b634e487b7160e01b600052604160045260246000fd5b600082601f830112610ae657600080fd5b813567ffffffffffffffff80821115610b0157610b01610abf565b604051601f8301601f19908116603f01168101908282118183101715610b2957610b29610abf565b81604052838152866020858801011115610b4257600080fd5b836020870160208301376000602085830101528094505050505092915050565b60008060008060008060c08789031215610b7b57600080fd5b86356001600160a01b0381168114610b9257600080fd5b9550602087013567ffffffffffffffff80821115610baf57600080fd5b610bbb8a838b01610ad5565b96506040890135915080821115610bd157600080fd5b610bdd8a838b01610ad5565b9550606089013594506080890135935060a0890135915080821115610c0157600080fd5b50610c0e89828a01610ad5565b9150509295509295509295565b600081518084526020808501945080840160005b83811015610c545781516001600160a01b031687529582019590820190600101610c2f565b509495945050505050565b600081518084526020808501945080840160005b83811015610c5457815187529582019590820190600101610c73565b60006020808301818452808551808352604092508286019150828160051b87010184880160005b83811015610d8e57888303603f19018552815180516001600160a01b0316845261012088820151818a870152610cee82870182610a0f565b9150508782015185820389870152610d068282610a0f565b606084810151908801526080808501519088015260a0808501519088015260c080850151888303828a01529193509150610d408382610a0f565b9250505060e08083015186830382880152610d5b8382610c1b565b925050506101008083015192508582038187015250610d7a8183610c5f565b968901969450505090860190600101610cb6565b509098975050505050505050565b600181811c90821680610db057607f821691505b60208210810361096c57634e487b7160e01b600052602260045260246000fd5b634e487b7160e01b600052601160045260246000fd5b80820180821115610df957610df9610dd0565b92915050565b601f821115610e4957600081815260208120601f850160051c81016020861015610e265750805b601f850160051c820191505b81811015610e4557828155600101610e32565b5050505b505050565b815167ffffffffffffffff811115610e6857610e68610abf565b610e7c81610e768454610d9c565b84610dff565b602080601f831160018114610eb15760008415610e995750858301515b600019600386901b1c1916600185901b178555610e45565b600085815260208120601f198616915b82811015610ee057888601518255948401946001909101908401610ec1565b5085821015610efe5787850151600019600388901b60f8161c191681555b5050505050600190811b01905550565b600060018201610f2057610f20610dd0565b5060010190565b81810381811115610df957610df9610dd0565b634e487b7160e01b600052603260045260246000fdfea2646970667358221220516138ba1c9111c3cd8b615ee565eefed93a815dad5db623ded9ef14f5659bab64736f6c63430008110033",
  "linkReferences": {},
  "deployedLinkReferences": {}
}